:1000000012EF07F00000000000EF00F00000000019
:0A0010000000000000000000F3D71C
:0C001C00020E0D6E0D2EFED7000012002B
:0C0028001A0E0D6E0D2EFED70000120007
:100034000001C66BC86BC96B100ECA6F040EC95D94
:1000440029E2F00E836E120E006E000E016E830E16
:100054000024E16E0F0E0120E26ECA1D006E00C086
:10006400E6FFDADFD9DF0F0E8314006E00C0C7F09D
:1000740000520AE0C8C0C6F0C75304E0C733C79FA4
:10008400C62BFAD7040EC96FCA37CA91040EC82703
:0A009400C92BD4D7C6C000F012003B
:10009E003A0E0C6E230E0D6E0D2EFED70C2EFCD7C7
:0200AE0012003E
:0A00B000850E0D6E0D2EFED7120016
:1000BA000001C5BF02D0829E01D0828EC5BD02D08A
:1000CA00829C01D0828CC5BB02D0829A01D0828ADE
:1000DA00C5B902D0829801D08288ACB102D082849C
:1000EA0001D08294828695DF8296C5B702D0829E1D
:1000FA0001D0828EC5B502D0829C01D0828CC5B354
:10010A0002D0829A01D0828AC5B102D0829801D0E7
:10011A008288ACB102D0828401D08294828679DF4F
:0E012A008296ACA102D0B6DF01D0BDDF12007C
:100138007DDF00C0C5F00F0E8314006E02E070DF93
:08014800FAD7C5C000F0120057
:1001500010D0800E0001C26F1AD0C00EC26F17D02F
:10016000940EC26F14D0D40EC26F11D0800EC26F25
:100170000ED00001C251010AECE0C251020AEDE0CA
:10018000C251030AEDE0C251040AEDE0EFD7C30506
:10019000006EC251002600C0C2F0AC8100C0C5F0A4
:0E01A0008CDFAC91C4C0C5F088DFAC811200CA
:1001AE00086A096A100E0C6E0134083609360450BE
:1001BE00085E0550D8A0053C095ED8B007D00450A3
:1001CE0008260550D8B0053C0926D89000360136D1
:0601DE000C2EEAD712000E
:1001E400A69CC2C0A9FFA69EA680A8CF00F01200BC
:0E01F4000001AC91C2C0C5F05EDFAC8112000C
:100202000B6A0A6A096A00500402F4CF09F0F3CFBC
:1002120008F001500502F4CF0BF0F3CF0AF00050C2
:100222000502F3500926F4500A22E86A0B22015013
:100232000402F3500926F4500A22E86A0B2208C08D
:1002420000F009C001F00AC002F00BC003F0120076
:1002520072DF00C097F00052FBE030D0370E976F8C
:100262005DD0380E976F5AD0390E976F57D0D60E91
:10027200976F54D0340E976F51D0350E976F4ED082
:10028200360E976F4BD0780E976F48D0310E976F1E
:1002920045D0320E976F42D0330E976F3FD0D00EBB
:1002A200976F3CD0230E976F39D0300E976F36D0B0
:1002B2003D0E976F33D02B0E976F30D09751010AB6
:1002C200CDE09751020ACDE09751030ACDE0975154
:1002D200040ACDE09751050ACDE09751060ACDE018
:1002E2009751070ACDE09751080ACDE09751090AC4
:1002F200CDE097510A0ACDE097510B0ACDE0975114
:100302000C0ACDE097510D0ACDE097510E0ACDE0CF
:0E03120097510F0ACDE09751100ACDE012006E
:10032000080E0001C26F5EDF00C03CF0090EC26F14
:1003300059DF00C03DF00A0EC26F54DF00C03EF02E
:100340000B0EC26F4FDF00C03FF00C0EC26F4ADFD2
:0603500000C040F01200A5
:100356000001BF6B050EBF5D0AE2BF51BD25E16E10
:10036600000EBE21E26E200EE66EBF2BF3D7BF5104
:10037600BD25E16E000EBE21E26EE66ABF07BF51E3
:10038600BD25C06F000EBE21C16F0A0E046E000EA1
:10039600056EBBC000F0BCC001F006DF08C000F06F
:1003A60009C001F0300E0026C0C0E1FFC1C0E2FF67
:1003B60000C0E6FF0A0E046E000E056EBBC000F01C
:1003C600BCC001F0F1DE00C0BBF001C0BCF0000E05
:1003D600011802E1000E001801E102D0BF07CFD7D5
:0203E600120003
:1003E8000B0E0001BB6F000EBC6F3B6A3B5003084D
:1003F800D8A068D1360EBD6F000EBE6F3B50BD272A
:10040800D8B0BE2B95DEBDC0E1FFBEC0E2FF00C084
:10041800E6FF360EE96E000EEA6E3B50E926D8B0CC
:10042800EA2AEE52E7E0360E016E000E026E3B50ED
:100438000126D8B0022AB0D0360EE16E000EE26E68
:100448003B50E126D8B0E22A370EE66E25D1360EAB
:10045800E16E000EE26E3B50E126D8B0E22A380E7B
:10046800E66E1AD1360EE16E000EE26E3B50E126C2
:10047800D8B0E22A390EE66E0FD1360EE16E000EC4
:10048800E26E3B50E126D8B0E22AD60EE66E04D1E1
:10049800360EE16E000EE26E3B50E126D8B0E22A3D
:1004A800340EE66EF9D0360EE16E000EE26E3B5069
:1004B800E126D8B0E22A350EE66EEED0360EE16EB1
:1004C800000EE26E3B50E126D8B0E22A360EE66E08
:1004D800E3D0360EE16E000EE26E3B50E126D8B056
:1004E800E22A780EE66ED8D0360EE16E000EE26E85
:1004F8003B50E126D8B0E22A310EE66ECDD0360E5A
:10050800E16E000EE26E3B50E126D8B0E22A320ED0
:10051800E66EC2D0360EE16E000EE26E3B50E1266A
:10052800D8B0E22A330EE66EB7D0360EE16E000E72
:10053800E26E3B50E126D8B0E22AD00EE66EACD08F
:10054800360EE16E000EE26E3B50E126D8B0E22A8C
:10055800230EE66EA1D0360EE16E000EE26E3B5021
:10056800E126D8B0E22A300EE66E96D0360EE16E5D
:10057800000EE26E3B50E126D8B0E22A3D0EE66E50
:100588008BD0360EE16E000EE26E3B50E126D8B0FD
:10059800E22A2B0EE66E80D001C0E9FF02C0EAFF16
:1005A800EE50010AD8B448D701C0E9FF02C0EAFFFB
:1005B800EE50020AD8B44BD701C0E9FF02C0EAFFE7
:1005C800EE50030AD8B44ED701C0E9FF02C0EAFFD3
:1005D800EE50040AD8B451D701C0E9FF02C0EAFFBF
:1005E800EE50050AD8B454D701C0E9FF02C0EAFFAB
:1005F800EE50060AD8B457D701C0E9FF02C0EAFF97
:10060800EE50070AD8B45AD701C0E9FF02C0EAFF82
:10061800EE50080AD8B45DD701C0E9FF02C0EAFF6E
:10062800EE50090AD8B460D701C0E9FF02C0EAFF5A
:10063800EE500A0AD8B463D701C0E9FF02C0EAFF46
:10064800EE500B0AD8B466D701C0E9FF02C0EAFF32
:10065800EE500C0AD8B469D701C0E9FF02C0EAFF1E
:10066800EE500D0AD8B46CD701C0E9FF02C0EAFF0A
:10067800EE500E0AD8B46FD701C0E9FF02C0EAFFF6
:10068800EE500F0AD8B472D701C0E9FF02C0EAFFE2
:10069800EE50100AD8B475D70C0EC56F0ADD010EDE
:1006A800C26FBBC0C3F0360EE96E000EEA6E3B5057
:1006B800E926D8B0EA2AEECFC4F046DDBB4BBC2B06
:0606C8003B2A94D612004B
:1006CE000A0E0001BB6F000EBC6FBCDD97C098F028
:1006DE00000E996F000E991902E1230E9819D8B4E5
:1006EE0083D0020EC26FBBC0C3F097C0C4F029DD29
:1006FE00BB4BBC2B19D034C000F035C001F00A0E34
:10070E00046E000E056E76DD300E985D026E000EE4
:10071E009959036E02500024346E03500120356E39
:10072E005DD0346A356A5AD0000E991902E1300E46
:10073E009819E1E0000E991902E1310E9819DBE0EB
:10074E00000E991902E1320E9819D5E0000E991992
:10075E0002E1330E9819CFE0000E991902E1340E22
:10076E009819C9E0000E991902E1350E9819C3E0E7
:10077E00000E991902E1360E9819BDE0000E991976
:10078E0002E1370E9819B7E0000E991902E1380E02
:10079E009819B1E0000E991902E1390E9819ABE0E3
:1007AE00000E991902E1D60E9819BBE0000E9919A8
:1007BE0002E1780E9819B5E0000E991902E1D00EFB
:1007CE009819AFE0000E991902E12B0E9819A9E0C5
:1007DE00000E991902E13D0E9819A3E033DD97C082
:0A07EE0098F0000E996F76D7120004
:1007F800A6A202D00000FCD7A69CBBC0A9FFBCC023
:10080800A8FFA69EA684F2CF00F0F29E550EA76E12
:10081800AA0EA76EA68200BE02D0F29E01D0F28E6A
:0E082800A694A1B802D00000FCD7A19812003F
:10083600BBC0E9FFBCC0EAFFEE5211E0BBC0E9FF56
:10084600BCC0EAFFBDC0D9FFBEC0DAFFEE50DE185D
:1008560006E10001BB4BBC2BBD4BBE2BE9D7BBC091
:10086600E9FFBCC0EAFFBDC0D9FFBEC0DAFFDE505B
:0C087600EE5C006E016A000E015A1200D8
:10088200030E0001C26FADDC00C03CF0040EC26F6B
:10089200A8DC00C03DF0050EC26FA3DC00C03EF034
:1008A200060EC26F9EDC00C03FF0070EC26F99DCDD
:0608B20000C040F012003E
:1008B80010D0800E0001BB6F1AD0C00EBB6F17D0CE
:1008C800940EBB6F14D0D40EBB6F11D0800EBB6FCB
:1008D8000ED00001BB51010AECE0BB51020AEDE069
:1008E800BB51030AEDE0BB51040AEDE0EFD7BC05AC
:1008F800006EBB51002600C0BBF000C0C5F05DEC27
:1009080000F0AC91BF6BBF51BD25E96E000EBE2152
:10091800EA6EEE520BE0BF51BD25E96E000EBE2116
:10092800EA6EEECFC2F062DCBF2BEDD7AC811200CD
:10093800120E006E000E016E830E0024E16E0F0E83
:0A0948000120E26EFF0EE66E1200C1
:100952000900F5CFE6FF0006FBE10106F9E112000E
:10096200030E0001BB6F310EBC6F45DF020E0B6E32
:10097200040E0C6EBA0E0D6E0D2EFED70C2EFCD789
:100982000B2EFAD70000040E0001BB6F320EBC6FB3
:1009920032DF020E0B6E040E0C6EBA0E0D6E0D2EB1
:1009A200FED70C2EFCD70B2EFAD70000050E000145
:1009B200BB6F330EBC6F1FDF020E0B6E040E0C6E8C
:1009C200BA0E0D6E0D2EFED70C2EFCD70B2EFAD7BB
:1009D2000000060E0001BB6F230EBC6F0CDF020E7F
:1009E2000B6E040E0C6EBA0E0D6E0D2EFED70C2E73
:1009F200FCD70B2EFAD70000070E0001BB6FBC6BB1
:100A0200FADE020E0B6E040E0C6EBA0E0D6E0D2E79
:100A1200FED70C2EFCD70B2EFAD70000080E0001D1
:100A2200BB6F340EBC6FE7DE020E0B6E040E0C6E53
:100A3200BA0E0D6E0D2EFED70C2EFCD70B2EFAD74A
:100A42000000090E0001BB6F350EBC6FD4DE020E32
:100A52000B6E040E0C6EBA0E0D6E0D2EFED70C2E02
:100A6200FCD70B2EFAD700000A0E0001BB6F360E20
:100A7200BC6FC1DE020E0B6E040E0C6EBA0E0D6E52
:100A82000D2EFED70C2EFCD70B2EFAD700000B0E24
:100A92000001BB6F230EBC6FAEDE020E0B6E040EA6
:100AA2000C6EBA0E0D6E0D2EFED70C2EFCD70B2E31
:100AB200FAD700000C0E0001BB6FBC6B9CDE020E6D
:100AC2000B6E040E0C6EBA0E0D6E0D2EFED70C2E92
:0A0AD200FCD70B2EFAD7000012002B
:100ADC000001B76BB86BB1C0B9F0B2C0BAF0800E00
:100AEC00B219006E800E005C02E1000EB15D0BE2EB
:100AFC00010EB76F000EB86FB1510008B96FB2C0DC
:100B0C00BAF0000EBA57B9C0BBF0BAC0BCF0B3C053
:100B1C00BDF0B4C0BEF019DC060EB56F000EB66F9A
:100B2C00000E006EB651005C02E1B551000819E2EE
:100B3C00B551B325E16EB651B421E26E010EB55D2F
:100B4C00006E000EB659016E0050B325E96E0150CF
:100B5C00B421EA6EEECFE6FF010EB55F000EB65B78
:100B6C00DFD7B3C0E1FFB4C0E2FF200EE66EB75191
:100B7C00B8111AE0B56BB66BB551B325E96EB65129
:100B8C00B421EA6EEE50200A03E1B54BB62BF4D734
:100B9C00010EB55F000EB65BB551B325E16EB651D3
:0A0BAC00B421E26E2D0EE66E120079
:100BB60000019A6B010EC56F5DEC00F00C0EC56F5F
:100BC6005DEC00F0010EBB6F010EBC6F4C0EBD6FED
:100BD600000EBE6F6EDE020EBB6F010EBC6F410EC5
:100BE600BD6F000EBE6F65DE940EC56F5DEC00F046
:100BF600020EC56F5DEC00F0030EBB6FFD0EBC6F01
:100C0600260EBD6F000EBE6F54DED40EC56F5DECB2
:100C160000F0020EC56F5DEC00F0040EBB6FFD0E1A
:0E0C2600BC6F150EBD6F000EBE6F43DE1200D8
:100C3400949694949498949A949C949E8296829474
:100C4400829E829C829A82984FEC00F04FEC00F0D6
:100C54004FEC00F0828A828882860EEC00F0829645
:100C64004FEC00F082860EEC00F082964FEC00F020
:100C740082860EEC00F082964FEC00F08298828619
:100C84000EEC00F082964FEC00F082860EEC00F041
:100C94008296829A828E82860EEC00F082964FECC7
:100CA40000F0829E828882860EEC00F08296829802
:100CB40082860EEC00F082964FEC00F082860EECF9
:100CC40000F08296828882860EEC00F082964FECC9
:100CD40000F0829882860EEC00F08296828E828CDE
:100CE400828A828882860EEC00F082964FEC00F0B5
:060CF4000001AC811200BA
:100CFA00010E0001C56F5DEC00F0010EBB6F010E25
:100D0A00BC6F2D0EBD6F000EBE6FD1DDF4EC01F08D
:100D1A00B3DD360EBB6F000EBC6F3C0EBD6F000E0E
:100D2A00BE6F84DD00C09BF001C09CF0000E01186C
:100D3A0002E1000E001862E1010E0001C56F5DECD0
:100D4A0000F0010EBB6F010EBC6F720EBD6F000E7C
:100D5A00BE6FADDDF4EC01F090EC01F0360EBB6F26
:100D6A00000EBC6F3C0EBD6F000EBE6F5FDD00C093
:100D7A00ADF001C0AEF0000E011802E1000E00183D
:100D8A002EE1010E0001C56F5DEC00F0010EBB6F94
:100D9A00010EBC6F630EBD6F000EBE6F88DD020EC2
:100DAA00BB6F010EBC6F8E0EBD6F000EBE6F7FDD76
:100DBA0089DC34C0AFF035C0B0F0020EBB6F34C06E
:100DCA00BCF015DD050E0B6E0F0E0C6EF10E0D6EDE
:100DDA000D2EFED70C2EFCD70B2EFAD70ED0010EF5
:100DEA000001C56F5DEC00F0010EBB6F010EBC6F18
:100DFA007C0EBD6F000EBE6F5ADD0ED00001010ED3
:100E0A00C56F5DEC00F0010EBB6F010EBC6F570E93
:0A0E1A00BD6F000EBE6F4BDD12002D
:100E2400FCEC07F09CDD86DD03DF939C939E9380AE
:100E3400938881B00DD0680E0C6EE40E0D6E0D2EED
:100E4400FED70C2EFCD7000081B001D054DFF1D7BF
:100E540081A08DD0AEDE81A08AD0020EC26FF2ECEA
:100E640000F000C055F0000E566E55C0B1F056C0EB
:100E7400B2F09D0EB36F000EB46F2EDE010EBB6F89
:100E8400090EBC6F9D0EBD6F000EBE6F13DD81B8E1
:100E94006DD0030E0B6E080E0C6E770E0D6E0D2EBC
:100EA400FED70C2EFCD70B2EFAD781B85FD0614A3F
:100EB400622A61C0B1F062C0B2F09D0EB36F000E41
:100EC400B46F0ADE020EBB6F0A0EBC6F9D0EBD6FBF
:100ED400000EBE6FEFDC6250561802E155506118E7
:100EE40045E161505F2662506022940EC56F5DEC4F
:100EF40000F0020EC56F5DEC00F0140EC56F5DECE2
:100F040000F05FC0B1F060C0B2F09D0EB36F000E90
:100F1400B46FE2DD030EBB6F020EBC6F9D0EBD6F9E
:100F2400000EBE6FC7DC819C818E150E0B6E4B0EBE
:100F34000C6EBE0E0D6E0D2EFED70C2EFCD70B2E96
:100F4400FAD70000819C819E616A626AB16BB26BC0
:100F54009D0EB36F000EB46FBFDD020EBB6F0A0EA1
:100F6400BC6F9D0EBD6F000EBE6FA4DC74D761D73D
:020F7400FFD7A5
:100FF80010EE15F0820E006E010E016E760EF66E82
:0E1008000F0EF76E000EF86EA9EC04F0120049
:100F7600427574746F6E20746F204368616E676586
:010F8600006A
:070F8700546F74616C3A0025
:070F8E0041646D696E3A0039
:020F950000005A
:050F9700000000000055
:010F9C000054
:050F9D0000000000004F
:0B0FA20043757272656E746C793A0042
:090FAD00546F2066696C6C3A0077
:020FB600000039
:080FB800696E76616C6964004A
:020FC00000002F
:020FC20000002D
:0F0FC4004368616E67652053657474696E6700DA
:0A0FD30050617373776F72643A0087
:100FDD002070617373776F726420696E76616C69CE
:020FED0064009E
:090FEF005461626C6574733A00F0
:020000040030CA
:0D000100220F0EFF0181FF0FC00FE00F4026
:00000001FF
