:020000020000FC
:1000000008E00EBF0FEF0DBF0FEF04B907B90AB933
:100010000E947801FDCF53E062E0000000006A9585
:10002000E1F75A95C9F7089540E258EC6AEF0000ED
:1000300000006A95E1F75A95C9F74A95B1F7089516
:100040004BEF48B941E045B90E94CE0149EF48B9AC
:1000500042E045B90E94CE014BEF48B944E045B9B2
:100060000E94CE014BEF48B948E045B90E94CE014D
:100070004BEF48B940E145B90E94CE014BEF48B97A
:1000800040E245B90E94CE0141EF48B940E445B98C
:100090000E94CE01089541EF48B941E045B90E9460
:1000A000CE0147EF48B942E045B90E94CE0147EF83
:1000B00048B944E045B90E94CE0141EF48B948E053
:1000C00045B90E94CE014DEF48B940E145B90E94C3
:1000D000CE014DEF48B940E245B90E94CE0141EF53
:1000E00048B940E445B90E94CE01089541EF48B9AE
:1000F00041E045B90E94CE0147EF48B942E045B919
:100100000E94CE0147EF48B944E045B90E94CE01B4
:1001100041EF48B948E045B90E94CE0147EF48B9E0
:1001200040E145B90E94CE0147EF48B940E245B9E8
:100130000E94CE0141EF48B940E445B90E94CE018A
:10014000089545EF48B941E045B90E94CE0145EF19
:1001500048B942E045B90E94CE0145EF48B944E0B4
:1001600045B90E94CE0141EF48B948E045B90E9427
:10017000CE0147EF48B940E145B90E94CE0147EFB3
:1001800048B940E245B90E94CE0147EF48B940E482
:1001900045B90E94CE01089541EF48B941E045B903
:1001A0000E94CE014DEF48B942E045B90E94CE0110
:1001B0004DEF48B944E045B90E94CE0141EF48B93E
:1001C00048E045B90E94CE0147EF48B940E145B942
:1001D0000E94CE0147EF48B940E245B90E94CE01E6
:1001E00041EF48B940E445B90E94CE01089541EF7E
:1001F00048B941E045B90E94CE014DEF48B942E00F
:1002000045B90E94CE014DEF48B944E045B90E947E
:10021000CE0141EF48B948E045B90E94CE0145EF13
:1002200048B940E145B90E94CE0145EF48B940E2E6
:1002300045B90E94CE0141EF48B940E445B90E945A
:10024000CE01089541EF48B941E045B90E94CE0181
:1002500047EF48B942E045B90E94CE0147EF48B99F
:1002600044E045B90E94CE0147EF48B948E045B99E
:100270000E94CE0147EF48B940E145B90E94CE0146
:1002800047EF48B940E245B90E94CE0147EF48B96F
:1002900040E445B90E94CE01089541EF48B941E0DC
:1002A00045B90E94CE0145EF48B942E045B90E94E8
:1002B000CE0145EF48B944E045B90E94CE0141EF77
:1002C00048B948E045B90E94CE0145EF48B940E140
:1002D00045B90E94CE0145EF48B940E245B90E94B8
:1002E000CE0141EF48B940E445B90E94CE010895DE
:1002F00041EF48B941E045B90E94CE0145EF48B908
:1003000042E045B90E94CE0145EF48B944E045B905
:100310000E94CE0141EF48B948E045B90E94CE01A4
:1003200047EF48B940E145B90E94CE0147EF48B9CF
:1003300040E245B90E94CE0141EF48B940E445B9D9
:100340000E94CE01089541EF48B941E045B90E94AD
:10035000CE0145EF48B942E045B90E94CE0145EFD4
:1003600048B944E045B90E94CE0145EF48B948E09C
:1003700045B90E94CE0145EF48B940E145B90E9418
:10038000CE0145EF48B940E245B90E94CE0141EFA8
:1003900048B940E445B90E94CE0108950E940B007F
:0E03A0004FEF48B940E045B90E940B000895A8
:00000001FF
