:020000020000FC
:1000000026EF10E000E0A0E0B0E0C0E0D0E0E0E0EB
:10001000F0E00FEF04B90AB98894221F111F01D034
:10002000FBCF012F02950F70053008F40CC033E0B0
:10003000030F02951F70102B07D0E5B9107FFF70DA
:100040001F2B1BB9FFCF08958894221F111FEE1F8D
:10005000FF1F16D021D02AD0203009F0F5CFD12FA4
:10006000DF70D03009F0F0CF8E2F8F70853008F41C
:1000700006C08894221F111FEE1FFF1F00C00895A5
:10008000012F02950F70053008F405C033E0030F0F
:1000900002951F70102B08950E2F0F70053008F475
:1000A00004C033E0030FE07FE02B08950E2F02958C
:1000B0000F70053008F405C033E0030F0295EF70B0
:0400C000E02B089594
:00000001FF
