:020000020000FC
:1000000048E04EBF4FEF4DBF5FEF54B940EF4AB9E4
:100010004FEF47B90E9464000E94190025B998B9B2
:100020000E9464000E942A0085B948B90E943900E4
:10003000FFCF0E947E000E9468004A3048F4279F4C
:10004000040E202D3A95A9F70E947E00942F00C03F
:10005000942F08950E947E000E9468004A3040F468
:10006000879F040E802D3A95A9F70E947E0000C05C
:1000700008954D3308F427C04BE2941769F04DE220
:10008000941771F04AE2941771F04FE2941779F0E7
:1000900045E4941799F017C028B9280F25B913C063
:1000A000281B25B910C0829F05B818B80CC0662758
:1000B0006395281BE8F76A9565B905C020E080E0E4
:1000C00090E040E000C0089580E033E07AE00895D9
:1000D000403308F409C005E4401729F00DE3401748
:1000E00011F0405301C000C008950AEF1AEF00005C
:1000F00000001A95E1F70A95C9F708954FE04BB94A
:10010000000059B15F705F30D9F7000059B15F70DE
:100110005F30D9F30E94BE0059B15F705F30A9F320
:100120005FE75BB9000059B15F705F30A9F45FEB26
:100130005BB9000059B15F705F3089F45FED5BB966
:10014000000059B15F705F3069F45FEE5BB9000089
:1001500059B15F705F3049F4E0E0F6E009C0E4E0D7
:10016000F6E006C0E8E0F6E003C0ECE0F6E000C030
:10017000569510F44591FCCF4491089504E112E3A3
:0E018000000000001A95E1F70A95C9F70895EE
:100600002F3938372A3635342D3332312B3D3045AA
:00000001FF
