:020000020000FC
:0200000045C0F9
:10008C0000E10EBF0FEF0DBF43E06FD005D036D0AF
:10009C004ED057D00000FECFECE4F2E0C0E0DEE042
:1000AC004430ECF0E395E395E395E39554E0242F8D
:1000BC00251B322F203029F4559159935491588394
:1000CC001CC0E395E3952A95E1F755915993559109
:1000DC005993343009F011C0559159930EC021E059
:1000EC00249F202D203019F45491588306C0E39599
:1000FC002A95E9F75491588300C00895E0EAF2E09C
:10010C00C3E0DEE021E0249F202D322F203019F4B3
:10011C0054915883F2CFE3952A95E9F75591599369
:10012C00383009F003C05491588300C00895E0E0C2
:10013C00F3E0C5E0DEE017E0559159931A95E1F72D
:10014C000895E0E4F4E0CCE0DEE0142F103029F068
:10015C00E395E3951A95E1F700C054915883E39524
:10016C00C3955491588300C0089524E014E0149F63
:10017C00E0EAF4E0A0E4B1E0E3950A94E9F700C00A
:0E018C005591203019F05D932A95FACF089511
:0402C00064190000BD
:1004A0000E56000024F50400081506004EA70000B3
:1004B00030138D07F8C74202D0685800384B6800E7
:0404C000FFFFFFFF3C
:10024C0003313D064C2216CB037B041B0A151C0004
:0A02A000010707028B4C1020032C0D
:0803000000DA05A5FD0900006B
:10044000573A16B614813E8E0126021A056004F34F
:02045000320078
:00000001FF
