:03000000020800F3
:0C080000787FE4F6D8FD75811D020847E2
:100928000A083F065B4F666D7D077F6F0214000063
:0409380002180001A0
:10088C0012093D2098051208D380F885991674D06A
:10089C002516F516751200F51375140075150185DE
:1008AC00151A85131B531A0FE51AC454F0F51A5375
:1008BC001B0F451BF517F4F5801208D3C2A5AF1317
:0708CC00120949C29880BC2B
:0C093D00758920758DFD759850D28E22B2
:1008D300E4F51CF51DC2A6D2A7740825151209005C
:1008E300C2A6C2A7120904D2A6C2A774082513126E
:0D08F3000900C2A6C2A77F017E000209080D
:08090000F8E6F5907F017E008E
:10090800E4FDFCC3ED9FEC9E5015E4FBFA0BBB0025
:0F091800010ABA04F8BBFBF50DBD00010C80E429
:0109270022AD
:080949008F993099FDC299223B
:10080C0002088CE493A3F8E493A34003F68001F26E
:10081C0008DFF48029E493A3F85407240CC8C333ED
:10082C00C4540F4420C8834004F456800146F6DFBC
:10083C00E4800B0102040810204080900928E47E1B
:10084C00019360BCA3FF543F30E509541FFEE493B1
:10085C00A360010ECF54C025E060A840B8E493A378
:10086C00FAE493A3F8E493A3C8C582C8CAC583CAA3
:10087C00F0A3C8C582C8CAC583CADFE9DEE780BE5B
:01093C0000BA
:00000001FF
