:020000040000FA
:040000001AEF00F003
:020004000000FA
:040008000EEF00F007
:080018000FEF00F01100006E73
:10002000D8CF01F0E0CF02F002C0E0FF005001C0E5
:10003000D8FF1000936A946A958E959C958A00501B
:10004000036E4EEC00F083AEFCD70350826E032AA1
:1000500038EC00F00A0E036001D0F3D7838C83AA3A
:1000600001D0FCD7839C000E826E000E036EE9D790
:10007000640E016E640E026E000000000206FCE1D8
:100080000106F8E11200640E016E640E026E0000BB
:1000900000000206FCE10106F8E11200660E816E26
:1000A00043EC00F0330E816E43EC00F0990E816E4C
:0E00B00043EC00F0CC0E816E43EC00F0120029
:020000040030CA
:0100010009F5
:0100020019E4
:0100030000FC
:010005008971
:010006008079
:010008000FE8
:01000900C036
:01000A000FE6
:01000B00E014
:01000C000FE4
:01000D0040B2
:0200000400F00A
:040000004D434850D4
:00000001FF
