:020000040000FA
:040000001BEF00F002
:020004000000FA
:0200080008D01E
:0200180001D015
:06001A001100D8CF01FF28
:10002000E8CF00FFE0CF02FF02CFE0FF00CFE8FF04
:1000300001CFD8FF10000A0E056E030E066E0A0EE1
:100040000A6E0B0E086E010E096E010E006E946AA8
:10005000966A976A986A996A9A6A926A9568C0ECF1
:1000600000F0000E006E000E086E000E096E83BEDA
:1000700007D083B856D083BA64D083BC72D0F7D788
:1000800082A8FED78880888280808082828A54EC11
:1000900000F0846A856A866A876A80828080829A94
:1000A00088828880828CFFD76DEC00F00850056E46
:1000B000096201D00BD005060550856E6DEC00F08D
:1000C000060E006E6DEC00F00506F6E1000E856E82
:1000D000060E006E6DEC00F012000050046E086217
:1000E00001D007D004060450866E7EEC00F00406B2
:1000F000FAE1000E866E7EEC00F012000A0E006E31
:10010000000E086E00060050876E086201D004D011
:10011000C5EC00F0876EF6D7000E876EC5EC00F0D8
:100120001200EAEC00F083A8A2D7000E0050010FE5
:10013000006E866E056401D09AD7000E006E866E42
:1001400096D7EAEC00F083AA92D7000E0850010F70
:10015000086E856E0A6401D08AD7000E086E856E1F
:1001600086D7EAEC00F083AC82D70950010F096E04
:10017000846E066401D07BD7000E096E846E77D73B
:1001800083500060FDD7826E1200050E016E300EA6
:10019000CD6E0B0ECF6EDC0ECE6E9E90CD809EA0EF
:1001A000FED79E900106F5E112000A0E046EC5EC22
:1001B00000F00406FCE112003C0E026EC5EC00F0FB
:1001C0000206FCE112000A0E036EDCEC00F00306EE
:1001D000FCE11200300ECD6E0B0ECF6EDD0ECE6E3A
:0C01E0009E90CD809EA0FED79E90120045
:020000040030CA
:0100010000FE
:0200000400F00A
:1000000054657374204461746100010203040500A7
:00000001FF
