:020000020000FC
:1000000008E00EBF0FEF0DBF0FEF04B907B90AB933
:100010000E947A010E941600FBCF53E062E00000CC
:1000200000006A95E1F75A95C9F7089540E258EC47
:100030006AEF000000006A95E1F75A95C9F74A9502
:10004000B1F708954BEF45B941E04BB90E94D0019B
:1000500049EF45B942E04BB90E94D0014BEF45B999
:1000600044E04BB90E94D0014BEF45B948E04BB991
:100070000E94D0014BEF45B940E14BB90E94D0013D
:100080004BEF45B940E24BB90E94D00141EF45B971
:1000900040E44BB90E94D001089541EF45B941E0D9
:1000A0004BB90E94D00147EF45B942E04BB90E94DD
:1000B000D00147EF45B944E04BB90E94D00141EF70
:1000C00045B948E04BB90E94D0014DEF45B940E138
:1000D0004BB90E94D0014DEF45B940E24BB90E94A7
:1000E000D00141EF45B940E44BB90E94D0010895D9
:1000F00041EF45B941E04BB90E94D00147EF45B906
:1001000042E04BB90E94D00147EF45B944E04BB9FA
:100110000E94D00141EF45B948E04BB90E94D0019F
:1001200047EF45B940E14BB90E94D00147EF45B9CF
:1001300040E24BB90E94D00141EF45B940E44BB9D0
:100140000E94D001089545EF45B941E04BB90E94A6
:10015000D00145EF45B942E04BB90E94D00145EFCF
:1001600045B944E04BB90E94D00141EF45B948E0A0
:100170004BB90E94D00147EF45B940E14BB90E940D
:10018000D00147EF45B940E24BB90E94D00147EF9B
:1001900045B940E44BB90E94D001089541EF45B9FB
:1001A00041E04BB90E94D0014DEF45B942E04BB957
:1001B0000E94D0014DEF45B944E04BB90E94D001F7
:1001C00041EF45B948E04BB90E94D00147EF45B92E
:1001D00040E14BB90E94D00147EF45B940E24BB92D
:1001E0000E94D00141EF45B940E44BB90E94D001D3
:1001F000089541EF45B941E04BB90E94D0014DEF60
:1002000045B942E04BB90E94D0014DEF45B944E0F9
:100210004BB90E94D00141EF45B948E04BB90E946B
:10022000D00145EF45B940E14BB90E94D00145EFFF
:1002300045B940E24BB90E94D00141EF45B940E4D5
:100240004BB90E94D001089541EF45B941E04BB947
:100250000E94D00147EF45B942E04BB90E94D0015E
:1002600047EF45B944E04BB90E94D00147EF45B98B
:1002700048E04BB90E94D00147EF45B940E14BB986
:100280000E94D00147EF45B940E24BB90E94D0012E
:1002900047EF45B940E44BB90E94D001089541EFC2
:1002A00045B941E04BB90E94D00145EF45B942E064
:1002B0004BB90E94D00145EF45B944E04BB90E94CB
:1002C000D00141EF45B948E04BB90E94D00145EF5C
:1002D00045B940E14BB90E94D00145EF45B940E234
:1002E0004BB90E94D00141EF45B940E44BB90E949F
:1002F000D001089541EF45B941E04BB90E94D001CA
:1003000045EF45B942E04BB90E94D00145EF45B9F0
:1003100044E04BB90E94D00141EF45B948E04BB9E8
:100320000E94D00147EF45B940E14BB90E94D0018E
:1003300047EF45B940E24BB90E94D00141EF45B9C2
:1003400040E44BB90E94D001089541EF45B941E026
:100350004BB90E94D00145EF45B942E04BB90E942C
:10036000D00145EF45B944E04BB90E94D00145EFBB
:1003700045B948E04BB90E94D00145EF45B940E18D
:100380004BB90E94D00145EF45B940E24BB90E94FC
:10039000D00141EF45B940E44BB90E94D001089526
:1003A0000E940D004FEF4BB940E045B90E940D008F
:0203B0000895AE
:00000001FF
