:020000020000FC
:1000000048E04EBF4FE54DBF00C00E940C000E946B
:1000100011000E945100FBCF5FEF57BB40EF44BB84
:1000200008954FE045BB000053B35F705F30D9F7D0
:10003000000053B35F705F30D9F30E94530053B395
:100040005F705F30A9F35FE755BB000053B35F708B
:100050005F30A9F45FEB55BB000053B35F705F30B6
:1000600089F45FED55BB000053B35F705F3069F4F6
:100070005FEE55BB000053B35F705F3049F4E0E0C2
:10008000F6E009C0E4E0F6E006C0E8E0F6E003C010
:10009000ECE0F6E000C0569510F44591FCCF449199
:1000A000089548BB08950F931F930027112704E17B
:1000B00012E3000000001A95E1F70A95C9F71F91B5
:0400C0000F910895FF
:100600003132334134353642373839432A30234486
:00000001FF
