:020000040000FA
:020000001028C6
:040002000034003492
:08000800F0000308F1000A08F2
:10001000F20072088A0071088300F00E700E090069
:100020000030A80083160030870083128312031368
:10003000FF3086008316C0308600831287010301DB
:10004000061B34280D30B2009C208120B203031D12
:100050002428061F2028A80A2808643A03193128F2
:1000600048280030A8004828861B48280D30B200D8
:100070009C208120B203031D3828861F3428A80342
:100080002808003A0319452848286330A800482862
:100090002808A70003100030B1005020812020283C
:1000A0002708A9000A302902031C8028B10AA900E8
:1000B000093A031980282908083A031980282908D1
:1000C000073A031980282908063A031980282908C5
:1000D000053A031980282908043A031980282908B9
:1000E000033A031980282908023A031980282908AD
:1000F000013A031980282908003A03198028522858
:10010000080006128616310891208700A9200616DD
:1001100086169C2006168612290891208700A920A1
:10012000080082073F3406345B344F3466346D3444
:100130007D3407347F3467344630A1006430A20038
:1001400000000000A203031DA028A103031D9E2898
:1001500008000130A0002330A1000C30A2000000F4
:100160000000A203031DAF28A103031DAD28A003B7
:06017000031DAB2808008E
:02400E00E4309C
:00000001FF
