:100000000EEF09F00000000000EF00F0000000001B
:0A0010000000000000000000F3D71C
:10001C003A0E0C6E230E0D6E0D2EFED70C2EFCD749
:02002C001200C0
:0A002E00850E0D6E0D2EFED7120098
:0C003800020E0D6E0D2EFED7000012000F
:100044000B820BAE2CEF00F00368026801680068B5
:080054000A360232FF0E120011
:0E005C00026A016A006A086A036A000E120056
:10006A000B840BAE40EF00F0010E036E026A016AC8
:0A007A00006A0A360232FF0E12007F
:1000840074BE02D0839E01D0838E74BC02D0839C44
:1000940001D0838C74BA02D0839A01D0838A74B855
:1000A40002D0839801D0838859B002D0838401D0D0
:1000B40083948386BFDF839674B602D0839E01D077
:1000C400838E74B402D0839C01D0838C74B202D02A
:1000D400839A01D0838A74B002D0839801D0838834
:1000E40059B002D0838401D083948386A3DF83969E
:0C00F40059A002D091DF01D098DF12006B
:080100000AAE029E000E12007F
:100108000CB0C6EF00F00CA26CEF01F00E6A000E06
:100118000264DDEF00F0F00E0214D8A4A8EF00F09E
:10012800023A01380F0B02260138F00B016E003835
:100138000F0B01260038F00B006E08380F0B002655
:100148000838F00B086E0E84D89002BEC1EF00F09C
:1001580008360036013602360E2A02BEC1EF00F01C
:1001680008360036013602360E2A02BEC1EF00F00C
:1001780008360036013602360E2A0E50036462EF46
:1001880001F0035E0BBC08AE67EF01F0D880800E6B
:1001980008640030000E002201220222D8A067EF76
:1001A80001F0023201320032034A6CEF01F067EFCE
:1001B80001F001C002F000C001F008C000F0086AB8
:1001C800000E0E86026414EF01F0F00E0214D8A49B
:1001D800FCEF00F0023A01380F0B02260138F00B51
:1001E800016E00380F0B01260038F00B006E0E84EC
:1001F800D89002BEC1EF00F00036013602360E2A52
:1002080002BEC1EF00F00036013602360E2A02BEE9
:10021800C1EF00F00036013602360E2AC1EF00F0B9
:1002280001C002F000C001F0006A000E0E960E88B0
:10023800026441EF01F0F00E0214D8A42CEF01F093
:10024800023A01380F0B02260138F00B016E0E84BA
:10025800D89002BEC1EF00F0013602360E2A02BE67
:10026800C1EF00F0013602360E2A02BEC1EF00F0DF
:10027800013602360E2AC1EF00F001C002F0016A11
:10028800000E0E86026471EF01F0F00E0214D8A47D
:1002980050EF01F0023A0E84D89002BEC1EF00F090
:1002A80002360E2A02BEC1EF00F002360E2A02BE46
:1002B800C1EF00F002360E2AC1EF00F0010E0C6EFD
:1002C800D0DE74EF01F0020E0C6E16DF74EF01F051
:1002D800040E0C6EB3DE74EF01F0080E0C6EBADE7D
:0202E800120002
:1002EA0070C004F071C005F004C002F005C003F04C
:1002FA00044A052A72C000F073C001F0724A732AD8
:10030A0000C0E9FF01C0EAFF02C0E1FF03C0E2FF4B
:10031A00EECFE6FF02C0E9FF03C0EAFFEE5201E0BA
:0C032A00E3D770C000F071C001F01200B9
:0C0336003A0E0D6E0D2EFED700001200D6
:10034200086A096A000E0762036426EF02F002508F
:1003520006180A6E075003267E0ED8A0B7EF01F0EA
:10036200035ED8B02AEF02F0BBEF01F0035ED8A023
:100372002EEF02F0028E068E02C00EF001C00BF0CC
:1003820000C00DF000500402F4CF0CF00150050241
:10039200F4CF00F0F3CF08F00402F3500C26F4502F
:1003A2000822000E00220D500502F3500C26F450D4
:1003B2000822000E002202500402F3500826F450D4
:1003C200002202500502016A000E0122F3500026AB
:1003D200F45001220D500602F3500826F450002278
:1003E200026A000E012202220B500602F35000267E
:1003F200F4500122000E02220E500602F350012692
:10040200F450022202BE0EEF02F008360036013628
:1004120002360306D8B42EEF02F021EF02F0D880A4
:10042200800E08640030000E002201220222D8A0B1
:1004320021EF02F0023201320032034A2AEF02F0C7
:100442000AAE029E000E30EF02F0010E06DE30EF21
:1004520002F0020EF6DD30EF02F0040E05DE1200AD
:100462000D6A086A0050D8B4000C04180A6E0ABE5D
:100472000D1E0B6A04AE02D0041E042A00AE02D086
:10048200001E002A005004100A6E0ABE1FD004503B
:10049200085E003600340836045008260036060E80
:1004A2000C6E00340836045000B0085E00A0082626
:1004B20000360C2EF6D700A008260BB015D00DAED4
:1004C200000C001E002A081E082A000C04AE09D0E7
:1004D20000BE04D00050086E006AF1D7006A002AFC
:1004E200000C001E0B2AD3D7082A0450085CD8A49B
:0E04F200E6D7086A002A00AEE2D7FF0C12001F
:080500000B6A0B86FF0E1200CE
:100508000C6A0E6A0250D8A49DEF02F001C002F0F6
:1005180000C001F0006A0E860250D8A49DEF02F0D8
:1005280001C002F0016A0E960E880250D8B4AFEFEF
:1005380002F00E50035ED8A4D8A0B4EF02F0D89011
:1005480002BEB9EF02F0003601360236032EA4EFE0
:1005580002F0B4EF02F0010E0C6E7CDDBCEF02F08D
:10056800020E0C6E7EDDBCEF02F0040E0C6EC4DDD4
:0205780012006F
:10057A000A6A0350D8A40A800750D8A40A820A50EB
:10058A00D8B420EF03F0030AD8B4D9EF02F00AB0C6
:10059A00D4EF02F006AE1EEF03F01CEF03F002AE3A
:1005AA001CEF03F01EEF03F00250800B0A6E029E4E
:1005BA000650800B069E0A18D8B4EAEF02F00A50D9
:1005CA00D8B41CEF03F01EEF03F00750035CD8B455
:1005DA00F4EF02F0D8A010EF03F016EF03F0065084
:1005EA00025CD8B4FEEF02F0D8A010EF03F016EFC9
:1005FA0003F00550015CD8B408EF03F0D8A010EF5F
:10060A0003F016EF03F00450005CD8B420EF03F0B7
:10061A00D8B016EF03F00A52D8B41EEF03F01CEF5D
:10062A0003F00A52D8B41CEF03F01EEF03F0D8808F
:0E063A001200D8901200D880D884120012004E
:0C064800599070C074F01ADD5980120047
:100654000900F5CFE6FF0006FBE10106F9E112000F
:100664000FD0800E626E19D0C00E626E16D0940E3A
:10067400626E13D0D40E626E10D0800E626E0DD0F6
:100684006250010AEEE06250020AEEE06250030A90
:10069400EEE06250040AEEE0F0D76304006E6250AC
:1006A400002600C062F0598000C074F0E9DC599063
:0A06B40064C074F0E5DC5980120008
:1006BE000FD0800E626E19D0C00E626E16D0940EE0
:1006CE00626E13D0D40E626E10D0800E626E0DD09C
:1006DE006250010AEEE06250020AEEE06250030A36
:1006EE00EEE06250040AEEE0F0D76304006E625052
:1006FE00002600C062F000C074F0BDDC5990666A3E
:10070E0066506424E96E000E6520EA6EEE520BE030
:10071E0066506424E96E000E6520EA6EEECF70F02E
:0A072E008CDF662AEDD75980120017
:10073800959695949598959A959C959E839683946D
:10074800839E839C839A839865DC64DC63DC838A5C
:10075800838883866DDC83965DDC838669DC83967B
:1007680059DC838665DC839655DC8398838660DC58
:10077800839650DC83865CDC8396839A838E83869B
:1007880057DC839647DC839E8388838651DC839677
:10079800839883864DDC83963DDC838649DC83968B
:1007A8008388838645DC839635DC8398838640DCA2
:1007B8008396838E838C838A8388838639DC8396A9
:0607C80029DC598012003B
:1007CE00FF0E5A6EFF0E5B6EFF0E5C6EFF0E5D6EC1
:1007DE00C26AC00EC2122E1C006E0050C116C18C11
:0607EE00C18EC280120062
:1007F4006E6A6F6A62C06AF063C06BF064C06CF0CA
:1008040065C06DF06D50FF0A08E16C50FF0A05E108
:100814006B50FF0A02E16A50FF0A0CE166C070F0F7
:1008240067C071F02F0E726E000E736E5CDD030EE6
:10083400006EE9D1010E686E6CAE0ED0800E6C189D
:10084400006E00C06CF0682A66C0E1FF67C0E2FF7A
:100854002D0EE66E664A672A000E006E6D1808E1DA
:1008640000506C1805E100506B1802E16A50000A50
:100874000BE166C070F067C071F0280E726E000E56
:10088400736E31DD006ABFD16D50FF0A08E16C5010
:10089400000A05E16B50000A02E16A50000A0CE10B
:1008A40066C070F067C071F02A0E726E000E736E2F
:1008B4001ADD68C000F0A7D1000E046E000E056EAC
:1008C400000E066E7F0E076E6AC000F06BC001F06A
:1008D4006CC002F06DC003F04EDE010ED8B0000E05
:1008E400006E00521BE06AC000F06BC001F06CC0E7
:1008F40002F06DC003F0000E046E000E056E200EB3
:10090400066E820E076E1BDD00C06AF001C06BF03C
:1009140002C06CF003C06DF06F06CED7000E046EFB
:10092400000E056E200E066E820E076E6AC000F081
:100934006BC001F06CC002F06DC003F01CDE000E51
:10094400D8B0010E006E00521BE06AC000F06BC00C
:1009540001F06CC002F06DC003F0CD0E046ECC0E3D
:10096400056E4C0E066E7B0E076EE9DC00C06AF065
:1009740001C06BF002C06CF003C06DF06F2ACED7DB
:10098400FF0E6A14086EFF0E6B14096E7F0E6C1452
:100994000A6E000E6D140B6E08C004F009C005F059
:1009A4000AC006F00BC007F004360490053606367C
:1009B4000736000E6A14006E000E6B14016E000EF2
:1009C4006C14026EFF0E6D14036E00C06AF001C059
:1009D4006BF002C06CF003C06DF004506A10006E3E
:1009E40005506B10016E06506C10026E07506D10AE
:1009F400036E00C06AF001C06BF002C06CF003C06B
:100A04006DF07F0E6D5C006E00C069F0010E6D6EBE
:100A140000C004F06AC000F06BC001F06CC002F0CA
:100A24006DC003F0045007E0003600900136023632
:100A34000336FF0FF8D700C06AF001C06BF002C0A4
:100A44006CF003C06DF066C0E1FF67C0E2FF6D505B
:100A5400300FE66E664A672A800E6F18006E800EAD
:100A6400010A005C08E3800E060A006E800E6F180F
:100A7400005C01E30AD066C0E1FF67C0E2FF2E0E0E
:100A8400E66E664A672A010E6E6E060E696E69503E
:100A9400000A54E06D6A6AC000F06BC001F06CC0DB
:100AA40002F06DC003F000360090013602360336C2
:100AB400003600900136023603366A5000266B5029
:100AC40001226C5002226D50032200C06AF001C062
:100AD4006BF002C06CF003C06DF06AC000F06BC034
:100AE40001F06CC002F06DC003F0003600900136D6
:100AF4000236033600C06AF001C06BF002C06CF02D
:100B040003C06DF066C0E1FF67C0E2FF6D50300FB7
:100B1400E66E664A672A6E50000A0EE16F066F5051
:100B2400000A0AE166C0E1FF67C0E2FF2E0EE66E2E
:100B3400664A672A010E6E6E6906A9D7FF0E6624FF
:100B4400E96EFF0E6720EA6EEE50300A05E1010EF1
:100B5400665E000E675AF2D7FF0E6624E96EFF0E3A
:100B64006720EA6EEE502E0A04E1010E665E000E66
:100B7400675A6F50000A41E066C0E1FF67C0E2FFB8
:100B8400650EE66E664A672A800E6F18006E800E48
:100B9400000A005C0BE266C0E1FF67C0E2FF2D0EB5
:100BA400E66E664A672A6F5000086F6E6FC069F080
:100BB400800E090A006E800E6F18005C0EE20A0EA9
:100BC400046E69C000F04BDC66C0E1FF67C0E2FF61
:100BD4000050300FE66E664A672A0A0E046E69C03A
:100BE40000F03DDC08C000F066C0E1FF67C0E2FF32
:100BF4000050300FE66E664A672A66C0E1FF67C0A0
:080C0400E2FFE66A006A12003B
:100C0C000050086E0150006E016A026A036A0B6A9A
:100C1C000C6A960E036E0A6A00C001F008C000F060
:080C2C00086A026A6BDC120089
:100C3400C26AC00EC2122E1C006E0050C116C18CB6
:100C4400C18E62C000F0003600900036009000367D
:100C540000900050C212C2809BEC01F0C284C2A476
:100C640001D0FDD7C4CF01F0006AC3500012000EBA
:060C74000112C290120003
:100C7A000450000A12E10550000A0FE10650000A6A
:100C8A000CE10750000A09E1FF0E006EFF0E016E2B
:100C9A007F0E026EFF0E036EA8D0086A096A07501B
:100CAA00D8B4E8EF06F00350D8B4EDEF06F00250DE
:100CBA0006180A6E028E068E0E6A02C008F001C07D
:100CCA000CF000C00DF004500D5E0550D8A0053C94
:100CDA000C5E0650D8A0063C085E086A0C6A0D6ACB
:100CEA00D8A07FEF06F0D8900232013200320832E3
:100CFA00010E0E6E0750035ED8A08CEF06F07E0E32
:100D0A000E240326D8B0F2EF06F092EF06F07E0E1C
:100D1A000E240326D8A0F7EF06F0180E0B6E0D3638
:100D2A000C3608360036013602360E360450005E9E
:100D3A000550D8A0053C015E0650D8A0063C025ECC
:100D4A0006340E120EA0ADEF06F00D80B8EF06F0D5
:100D5A00045000260550D8B0053C01260650D8B0EC
:100D6A00062802260D900B2E94EF06F0DEEF06F011
:100D7A00D8900036013602360E360450005E055011
:100D8A00D8A0053C015E0650D8A0063C025E063497
:100D9A000E10010B0D26D8B00C2AD8B4082AD8A4F4
:100DAA00DEEF06F008320C320D32032AD8B4F2EF25
:100DBA0006F00AAE089E0850026E0C50016E0D50E5
:100DCA00006EFAEF06F0010E80EC02F0FAEF06F080
:100DDA00020E2EEC00F0FAEF06F0040E22EC00F000
:0C0DEA00FAEF06F0080E35EC00F01200E5
:100DF600025006180E6E086A096A0B6A03500764E9
:100E0600EEEF07F006500A6E068E028E03500B6E4A
:100E16000750036E000E0B643EEF07F00B50075EA3
:100E2600D8B4DFEF07F0070E0764ADEF07F0075EF3
:100E360000C008F001C000F002C001F0026A074ECF
:100E4600DFEF07F0076482EF07F0075E00C008F0E7
:100E560001C000F0016A074EDFEF07F0076460EF9C
:100E660007F0075E00C008F0006A074EDFEF07F0E4
:100E7600076447EF07F00AC002F005C001F004C09E
:100E860000F0086A0BEF09F0030E076452EF07F053
:100E9600075E08380F0B086E074EDFEF07F0D89095
:100EA6000832074EDFEF07F0D8900832074EDFEF23
:100EB60007F0D8900832DFEF07F0030E076471EFF2
:100EC60007F0075E08380F0B086E0038F00B08268F
:100ED60000380F0B006E074EDFEF07F0D890003298
:100EE6000832074EDFEF07F0D89000320832074E7F
:100EF600DFEF07F0D89000320832DFEF07F0030E7D
:100F0600076499EF07F0075E08380F0B086E003884
:100F1600F00B082600380F0B006E0138F00B002688
:100F260001380F0B016E074EDFEF07F0D890013244
:100F360000320832074EDFEF07F0D8900132003258
:100F46000832074EDFEF07F0D89001320032083240
:100F5600DFEF07F0030E0764CAEF07F0075E0838F5
:100F66000F0B086E0038F00B082600380F0B006ECA
:100F76000138F00B002601380F0B016E0238F00B1A
:100F8600012602380F0B026E074EDFEF07F0D890EE
:100F96000232013200320832074EDFEF07F0D890F6
:100FA6000232013200320832074EDFEF07F0D890E6
:100FB6000232013200320832096A000E0EAED3EF59
:100FC60008F0081E001E011E021E082A0022012229
:100FD6000222D3EF08F00750D8A4F4EF07F00BEF86
:100FE60009F0096A02C00AF0028E068E0750035CF9
:100FF600076ED8B4C6EF08F0070E076494EF08F042
:10100600075E0450096E0550046E0650056E066AAA
:10101600074EC6EF08F0070E076469EF08F0075E93
:101026000450096E0550046E056A074EC6EF08F0B7
:10103600070E076447EF08F0075E0450096E046A5E
:10104600074EC6EF08F0070E07642EEF08F00AC039
:1010560002F00BEF09F0030E076439EF08F0075EA4
:1010660009380F0B096E074EC6EF08F0D890093203
:10107600074EC6EF08F0D8900932074EC6EF08F0C3
:10108600D8900932C6EF08F0030E076458EF08F04F
:10109600075E09380F0B096E0438F00B0926043871
:1010A6000F0B046E074EC6EF08F0D89004320932D3
:1010B600074EC6EF08F0D89004320932074EC6EF45
:1010C60008F0D89004320932C6EF08F0030E076420
:1010D60080EF08F0075E09380F0B096E0438F00B35
:1010E600092604380F0B046E0538F00B0426053864
:1010F6000F0B056E074EC6EF08F0D8900532043286
:101106000932074EC6EF08F0D8900532043209328C
:10111600074EC6EF08F0D890053204320932C6EF02
:1011260008F0030E0764B1EF08F0075E09380F0BED
:10113600096E0438F00B092604380F0B046E0538C7
:10114600F00B042605380F0B056E0638F00B052646
:1011560006380F0B066E074EC6EF08F0D89006321B
:10116600053204320932074EC6EF08F0D89006322F
:10117600053204320932074EC6EF08F0D89006321F
:10118600053204320932086A000E0EAED3EF08F0BB
:10119600091E041E051E061E092A04220522062211
:1011A600095008260450002205500122065002224A
:1011B6000EBEEAEF08F0D8A0F9EF08F002320132CD
:1011C60000320832033EF9EF08F005EF09F0D8B017
:1011D600FFEF08F0000E081E001E011E021E082A60
:1011E6000022012202220A7EFFEF08F0010E0C6E99
:1011F60084EC00F00DEF09F0020E0C6E84EC00F0AA
:101206000DEF09F0040E0C6E22EC00F00DEF09F064
:06121600000E0C6E120038
:10121C00EDEC09F00E0EC16E9280E7EC03F09CEC45
:10122C0003F00C0E746E42EC00F0010E626E010EB7
:10123C00636E150E646E000E656E5FEC03F0626AF1
:10124C00F3DC00C026F001C027F0DADC000E046EDF
:10125C00400E056E1C0E066E8B0E076EA1EC01F097
:10126C00000E046E000E056E000E066E890E076EE3
:10127C00FEDC00C055F001C056F002C057F003C0B0
:10128C0058F0000E046E000E056E200E066E820ED7
:10129C00076EEDDC00C05EF001C05FF002C060F0D4
:1012AC0003C061F05EC055F05FC056F060C057F0EF
:1012BC0061C058F05EC000F05FC001F060C002F089
:1012CC0061C003F0000E046E000E056E100E066E6B
:1012DC00820E076EA1EC01F0000E046E000E056E7E
:1012EC00200E066E810E076EC2DC000E046E000E20
:1012FC00056E000E066E840E076E77DD00C033F0AF
:10130C0001C034F002C035F003C036F05EC062F0AC
:10131C005FC063F060C064F061C065F0370E666E4C
:10132C00000E676EFAEC03F033C062F034C063F069
:10133C0035C064F036C065F0460E666E000E676E02
:10134C00FAEC03F03B6A4A6A020E626E010E636E9F
:10135C00370E646E000E656E5FEC03F0020E626E6B
:10136C00050E636E430E646E32EC03F0020E626E79
:10137C000A0E636E460E646E000E656E5FEC03F033
:10138C00020E626E0E0E636E460E646E32EC03F04D
:10139C000D0E0B6E2D0E0C6ED70E0D6E0D2EFED788
:1013AC000C2EFCD70B2EFAD70000000048D7FFD725
:1013DA0010EE15F01E0E006E010E016EBC0EF66EBA
:0E13EA00130EF76E000EF86E2AEC03F01200E0
:1013BC004D7568616D6D616420416C616C696D691E
:0113CC000020
:0213CD0000001E
:0213CF003000EC
:0413D100494E46003B
:0113D5000F08
:0413D6004E614E0016
:020000040030CA
:0D000100220F0EFF0181FF0FC00FE00F4026
:00000001FF
