:020000020000FC
:1000000008E00EBF0FEF0DBF4FEF44B945E03EE1F2
:10001000532F2A98579508F42A9A2B980E942E005D
:100020002B9A0E942E004A95A1F748E031E0532F09
:100030002A98551F08F42A9A2B980E942E002B9A72
:100040000E942E004A95A1F70E942700FFCF2C9A0C
:100050000E942E002C980E942E00089503E012E0CA
:10006000000000001A95E1F70A95C9F7089558ECC9
:100070006AEF000000006A95E1F75A95C9F7089504
:00000001FF
