:020000040000FA
:0400000043EF0CF0CE
:1010000000496E74657276616C3A0000434F323A63
:0B101000000043303A00007A000000AE
:10101C00000E316E010E306E000E2D6E000E2C6E19
:10102C0028C02EF029C02FF038EF08F02EC020F089
:10103C002FC021F0000E236E0A0E226E2FEC0AF048
:10104C0020C02EF021C02FF030C020F031C021F094
:10105C00000E236E0A0E226EB9EC0CF020C030F09C
:10106C0021C031F02E502F10D8A43FEF08F041EFE3
:10107C0008F01CEF08F077EF08F030C020F031C01A
:10108C0021F0000E236E0A0E226E2FEC0AF020C007
:10109C0030F021C031F028C020F029C021F030C040
:1010AC0022F031C023F02FEC0AF020C02AF021C02E
:1010BC002BF00F0E2C24D96E000E2D20DA6E2AC0C8
:1010CC00DFFF28C020F029C021F030C022F031C051
:1010DC0023F0EDEC0AF020C028F021C029F02C4AB6
:1010EC002D2A31BE85EF08F0315007E1020E305C3D
:1010FC00D8B083EF08F085EF08F043EF08F00F50FD
:10110C00300F096E1050300F0A6EC00ECCEC0CF084
:10111C00000E216E0F0E206EFDEC0BF00950A5ECAD
:10112C000CF00A50A5EC0CF01200000E316E010E02
:10113C00306E000E2D6E000E2C6E28C02EF029C0C5
:10114C002FF0C5EF08F02EC020F02FC021F0000EBC
:10115C00236E0A0E226E2FEC0AF020C02EF021C056
:10116C002FF030C020F031C021F0000E236E0A0E9B
:10117C00226EB9EC0CF020C030F021C031F02E50B2
:10118C002F10D8A4CCEF08F0CEEF08F0A9EF08F0A0
:10119C0004EF09F030C020F031C021F0000E236EB6
:1011AC000A0E226E2FEC0AF020C030F021C031F074
:1011BC0028C020F029C021F030C022F031C023F02B
:1011CC002FEC0AF020C02AF021C02BF0110E2C2499
:1011DC00D96E000E2D20DA6E2AC0DFFF28C020F059
:1011EC0029C021F030C022F031C023F0EDEC0AF020
:1011FC0020C028F021C029F02C4A2D2A31BE12EF34
:10120C0009F0315007E1020E305CD8B010EF09F054
:10121C0012EF09F0D0EF08F01150300F096E125098
:10122C00300F0A6EC00ECCEC0CF0000E216E0F0EBF
:10123C00206EFDEC0BF00950A5EC0CF00A50A5EC5F
:10124C000CF01200818C819A32C00DF033C00EF07C
:10125C00800ECCEC0CF0000E216E0F0E206EFDEC0F
:10126C000BF0010E276E100E286EACEC0BF079EF24
:10127C0009F081B444EF09F046EF09F05CEF09F096
:10128C00010E216EF40E206EFDEC0BF032C027F037
:10129C0033C028F022EC0CF027C032F028C033F019
:1012AC0032C028F033C029F09BEC08F081B261EF1A
:1012BC0009F063EF09F079EF09F0010E216EF40EDD
:1012CC00206EFDEC0BF032C027F033C028F0D7ECC9
:1012DC000BF027C032F028C033F032C028F033C0F6
:1012EC0029F00EEC08F081A67EEF09F080EF09F0F2
:1012FC0087EF09F081B085EF09F087EF09F03FEF38
:10130C0009F032C028F033C029F09BEC08F081B012
:10131C0092EF09F094EF09F09EEF09F00DC032F056
:10132C000EC033F032C028F033C029F09BEC08F02B
:10133C00050E216EDC0E206EFDEC0BF0010ECCECDC
:10134C000CF0800ECCEC0CF0000E216E0F0E206E0B
:10135C00FDEC0BF0819C1200000E316E010E306E14
:10136C00000E2D6E000E2C6E28C02EF029C02FF012
:10137C00DCEF09F02EC020F02FC021F0000E236E00
:10138C000A0E226E2FEC0AF020C02EF021C02FF096
:10139C0030C020F031C021F0000E236E0A0E226EF8
:1013AC00B9EC0CF020C030F021C031F02E502F10D1
:1013BC00D8A4E3EF09F0E5EF09F0C0EF09F020EF56
:1013CC000AF030C020F031C021F0000E236E0A0E5E
:1013DC00226E2FEC0AF020C030F021C031F028C072
:1013EC0020F029C021F030C022F031C023F02FECC6
:1013FC000AF020C02AF021C02BF0D8902C34D96EE2
:10140C002D34DA6E010ED926000EDA222AC0DEFF48
:10141C002BC0DDFF28C020F029C021F030C022F005
:10142C0031C023F0EDEC0AF020C028F021C029F0E7
:10143C002C4A2D2A31BE2EEF0AF0315007E1020E54
:10144C00305CD8B02CEF0AF02EEF0AF0E7EF09F081
:10145C001200000E256E23BE38EF0AF036EF0AF0AC
:10146C003EEF0AF0226C231ED8B0232A010E256E03
:10147C0021BE45EF0AF043EF0AF04BEF0AF0206C67
:10148C00211ED8B0212A010E251A000E276E000E3F
:10149C00266E22502310D8B456EF0AF058EF0AF0FB
:1014AC0080EF0AF0010E246E60EF0AF0D89022361D
:1014BC002336242A23AE65EF0AF067EF0AF05CEFBF
:1014CC000AF0D890263627362250205C235021581B
:1014DC00D8A073EF0AF075EF0AF07AEF0AF02250F9
:1014EC00205E2350215A2680D89023322232242E7B
:1014FC0067EF0AF02550D8B486EF0AF088EF0AF0AF
:10150C008CEF0AF0266C271ED8B0272A26C020F0B4
:10151C0027C021F01200818A800ECCEC0CF0000E5A
:10152C00216E0F0E206EFDEC0BF0120E276E100EBE
:10153C00286EACEC0BF0010EC26E0E0EC16EAA0E34
:10154C00C06E000E216E010E206EFDEC0BF08DECCA
:10155C000CF020C015F021C016F015C01BF016C001
:10156C001CF015C028F016C029F0B2EC09F0830E5F
:10157C00CCEC0CF05CEC0CF0050EC26E0D0EC16EDA
:10158C00AA0EC06EC00ECCEC0CF0000E216E0F0E2D
:10159C00206EFDEC0BF00C0E276E100E286EACECD2
:1015AC000BF075EC0CF020C013F021C014F013C03C
:1015BC0019F014C01AF013C028F014C029F0B2ECC2
:1015CC0009F0C40ECCEC0CF05CEC0CF01200000E2C
:1015DC00256E21BEF6EF0AF0F4EF0AF0FCEF0AF0EC
:1015EC00206C211ED8B0212A010E256E23BE03EFDC
:1015FC000BF001EF0BF007EF0BF0226C231ED8B0B1
:10160C00232A22502310D8B40EEF0BF010EF0BF05E
:10161C0034EF0BF0010E246E18EF0BF0D89022363D
:10162C002336242A23AE1DEF0BF01FEF0BF014EF23
:10163C000BF02250205C23502158D8A028EF0BF03F
:10164C002AEF0BF02EEF0BF02250205E2350215A84
:10165C00D89023322232242E1FEF0BF02550D8B411
:10166C003AEF0BF03CEF0BF040EF0BF0206C211E2F
:10167C00D8B0212A20C020F021C021F01200000E89
:10168C00216EFA0E206EFDEC0BF0380ECCEC0CF04B
:10169C00000E216EFA0E206EFDEC0BF00E0ECCEC53
:1016AC000CF0000E216E0F0E206EFDEC0BF0010EF7
:1016BC00CCEC0CF0000E216E0F0E206EFDEC0BF03E
:1016CC00060ECCEC0CF0000E216E0F0E206EFDEC15
:1016DC000BF0860ECCEC0CF0000E216E0F0E206E73
:1016EC00FDEC0BF01200949094929494938093825E
:1016FC00938493869398939A939C939E000E956EE5
:10170C00000E966E9268849245EC0BF028EC09F072
:10171C0091EC0AF01CBE9CEF0BF0D10E1B5C070E7B
:10172C001C58D8A09CEF0BF09EEF0BF08EEF0BF03B
:10173C00890ECCEC0CF0170E276E100E286EACEC4C
:10174C000BF082848EEF0BF000EF00F0000E2C6E8D
:10175C00000E2B6EC2EF0BF02B502724296E2C5051
:10176C0028202A6E29C0F6FF2AC0F7FF0800F55082
:10177C00A5EC0CF02B4A2C2A2B502724296E2C502C
:10178C0028202A6E29C0F6FF2AC0F7FF0800F55062
:10179C000009D8A4D4EF0BF0D6EF0BF0B2EF0BF09E
:1017AC0012000A0E2724276E000E2820286E28BE51
:1017BC00E9EF0BF0285009E13C0E275CD8A0E9EFCB
:1017CC000BF0EBEF0BF0EFEF0BF0000E286E3C0E76
:1017DC00276EC40ECCEC0CF0000E216E0F0E206E9A
:1017EC00FDEC0BF027C027F028C028F01200000EEB
:1017FC00236E000E226E16EF0CF0000E256E000EFE
:10180C00246E244A252A255009E1870E245CD8A091
:10181C0012EF0CF014EF0CF007EF0CF0224A232A15
:10182C002050225C21502358D8A01FEF0CF021EF40
:10183C000CF003EF0CF01200F60E2724276EFF0EAF
:10184C002820286E27502810D8A42FEF0CF031EF49
:10185C000CF035EF0CF0000E286E000E276EC70E44
:10186C00CCEC0CF0000E216E0F0E206EFDEC0BF08C
:10187C0027C027F028C028F01200B40EF66E190EFF
:10188C00F76E000EF86E0900F5CF32F00900F5CFB7
:10189C0033F000EE01F01F0EEE6AE806FDE1000EDB
:1018AC00F86E100EF76E000179EF0BF00150300F4F
:1018BC00096E0350300F0A6E0550300F0B6E075037
:1018CC00300F0C6E0950A5EC0CF00A50A5EC0CF086
:1018DC000B50A5EC0CF00C50A5EC0CF01200C282D5
:1018EC00C2B27BEF0CF07DEF0CF076EF0CF0C35036
:1018FC00C4CF22F0236A22C023F0226A2210246E65
:10190C002350256E24C020F025C021F01200C28285
:10191C00C2B293EF0CF095EF0CF08EEF0CF0C350BD
:10192C00C4CF22F0236A22C023F0226A2210246E34
:10193C002350256E24C020F025C021F01200266E05
:10194C00000E216E0F0E206EFDEC0BF026C083FFF7
:10195C00848484908482000E216E010E206EFDEC36
:10196C000BF08492120020502202F3CF24F0F4CF1B
:10197C0025F020502302F350252621502202F3504B
:10198C00252624C020F025C021F01200266E26C08A
:10199C0083FF849484908482000E216E010E206E4D
:0A19AC00FDEC0BF0849212001E0007
:020000040020DA
:08000000FFFFFFFFFFFFFFFF00
:020000040030CA
:0E000000FF07191EFF8184FF0FC00FE00F40A5
:00000001FF
