:100000000C942A000C943C000C943C000C943C0092
:100010000C943C000C943C000C943C000C943C0070
:100020000C943C000C943C000C943C000C943C0060
:100030000C943C000C943C000C943C000C943C0050
:100040000C943C000C943C000C943C000C943C0040
:100050000C943C0011241FBECFE5D8E0DEBFCDBF1D
:1000600020E0A0E6B0E001C01D92A436B207E1F79F
:100070000E9457000C94AA000C9400009091630019
:1000800080916000981728F0891730F0981739F0A0
:1000900008958FEF9FEF08958FEF9FEF089580E011
:1000A00090E0089511BA8FEF87BB84BB08950E943A
:1000B000520015BA80B38093600088BB80E885BB8E
:1000C00085B38038B1F73FC080B38093630080E888
:1000D00085BB15BA85BB0E943E0090936200809359
:1000E0006100019611F48FE088BB809161009091CE
:1000F0006200019711F480EF88BB809161009091BC
:100100006200892BF1F48FEF88BB8FEF99E628E12D
:10011000815090402040E1F700C0000018BA8FEFF6
:1001200099E628E1815090402040E1F700C00000AE
:100130008FEF91E12AE7815090402040E1F700C025
:100140000000219602C0C0E0D0E0CA30D1050CF416
:08015000BBCFAFCFF894FFCF45
:00000001FF
