:10000000F6EF00F00000000000EF00F0000000003C
:0A0010000000000000000000F3D71C
:0C001C00020E0D6E0D2EFED7000012002B
:100028003A0E0C6E230E0D6E0D2EFED70C2EFCD73D
:020038001200B4
:0A003A00850E0D6E0D2EFED712008C
:100044003BBE02D0839E01D0838E3BBC02D0839CF6
:1000540001D0838C3BBA02D0839A01D0838A3BB807
:1000640002D0839801D0838834B002D0838401D035
:1000740083948386D1DF83963BB602D0839E01D0DE
:10008400838E3BB402D0839C01D0838C3BB202D0DC
:10009400839A01D0838A3BB002D0839801D08388AD
:1000A40034B002D0838401D083948386B5DF8396F1
:0C00B40034A002D0B7DF01D0BEDF120084
:0C00C00034903AC03BF0BEDF34801200E8
:1000CC000900F5CFE6FF0006FBE10106F9E112009D
:1000DC00959695949598959A959C959E83968394D0
:1000EC00839E839C839A839899DF98DF97DF838A1A
:1000FC00838883868DDF839691DF838689DF839661
:10010C008DDF838685DF839689DF8398838680DF06
:10011C00839684DF83867CDF8396839A838E8386A3
:10012C0077DF83967BDF839E8388838671DF83965C
:10013C00839883866DDF839671DF838669DF839670
:10014C008388838665DF839669DF8398838660DF87
:10015C008396838E838C838A8388838659DF8396E8
:06016C005DDF348012008B
:100172000FD0800E356E19D0C00E356E16D0940E8B
:10018200356E13D0D40E356E10D0800E356E0DD074
:100192003550010AEEE03550020AEEE03550030A0E
:1001A200EEE03550040AEEE0F0D73604006E35502A
:1001B200002600C035F000C03BF043DF3490396ABE
:1001C20039503724E96E000E3820EA6EEE520BE009
:1001D20039503724E96E000E3820EA6EEECF3AF03D
:0A01E2006EDF392AEDD734801200D9
:1001EC0023EC01F00E0EC16E928072DF0C0E3B6E92
:1001FC0023DF010E356E010E366E150E376E000EB6
:10020C00386EB1DF020E356E010E366E260E376E6D
:0A021C00000E386EA8DFFFD7FFD7F1
:1002460010EE15F01F0E006E010E016E260EF66EF4
:0E025600020EF76E000EF86E66EC00F012005D
:100226004D6F68616D6D656420416C616C696D69C7
:0102360000C7
:0E02370049443A3130303138353131303800F9
:020000040030CA
:0D000100220F0EFF0181FF0FC00FE00F4026
:00000001FF
