:020000040000FA
:0600000000000EEF00F00D
:020006000000F8
:0400080004EF00F011
:080018000CEF00F010D8807617
:100020008276010E036E06D880768276040E036E09
:1000300001D8F5D782741AD80306FCE112008E0E9F
:10004000C16EE10E926EDC0E936ED00E946E0F0EAA
:10005000956E000E966E880ED56E100E806EFF0E99
:10006000D76E000ED66E010E036E1200F2A4FED7FC
:10007000F2CF02F0F29ED6CF00F0D7CF01F0140EEF
:100080000026FF0E012201C0D7FF00C0D6FF02509C
:08009000800BF212F294120041
:020000040030CA
:02000000FFF20D
:02000200F2FE0C
:02000400FFFFFC
:02000600BBFF3E
:00000001FF
