:03000000020800F3
:0C080000787FE4F6D8FD75810E020847F1
:04093B00020B0001AA
:10088C00D2B7758920758DFD759850D28E20B74ED4
:10089C007F327E001208EF850C90050CE50C70027F
:1008AC00050B640A450B70E57F39120933120921D7
:1008BC008E088F09850990D2977FF47E011208EF7C
:1008CC00AF09AE0812090FC2977FF47E011208EF30
:1008DC00AF09AE0812090FE4F50BF50C80AF75A04B
:0308EC005580AA8A
:10090F008E0D8F0ED2971208EFC297AF0EAE0D025B
:02091F0008EFDF
:1008EF00E4FDFCC3ED9FEC9E5015E4FBFA0BBB003F
:0F08FF00010ABA04F8BBFBF50DBD00010C80E443
:01090E0022C6
:080933008F993099FDC2992251
:100921003098FD85990A74D0250AF50AC298FF7E90
:020931000022A2
:10080C0002088CE493A3F8E493A34003F68001F26E
:10081C0008DFF48029E493A3F85407240CC8C333ED
:10082C00C4540F4420C8834004F456800146F6DFBC
:10083C00E4800B010204081020408090093BE47E08
:10084C00019360BCA3FF543F30E509541FFEE493B1
:10085C00A360010ECF54C025E060A840B8E493A378
:10086C00FAE493A3F8E493A3C8C582C8CAC583CAA3
:10087C00F0A3C8C582C8CAC583CADFE9DEE780BE5B
:01093F0000B7
:00000001FF
